:020000040800F2
:1000000000000420990600089506000893060008E1
:1000100093060008930600089306000800000000FD
:10002000000000000000000000000000950600082D
:1000300095060008000000009506000895060008D7
:10004000930600089306000893060008930600082C
:10005000930600089306000893060008930600081C
:10006000930600089306000893060008930600080C
:1000700093060008930600089306000893060008FC
:1000800093060008930600089306000893060008EC
:1000900093060008930600089306000893060008DC
:1000A00093060008930600089306000893060008CC
:1000B00093060008930600089306000893060008BC
:1000C00093060008930600089306000893060008AC
:1000D000930600089306000893060008930600089C
:1000E000930600089306000893060008930600088C
:1000F000930600089306000893060008930600087C
:10010000930600089306000893060008930600086B
:10011000930600089306000893060008930600085B
:10012000930600089306000893060008930600084B
:10013000930600089306000893060008930600083B
:10014000930600089306000893060008930600082B
:10015000930600089306000893060008930600081B
:10016000930600089306000893060008930600080B
:1001700093060008930600089306000893060008FB
:1001800093060008930600089306000893060008EB
:1001900093060008930600089306000893060008DB
:1001A00093060008930600089306000813B5022082
:1001B00000F0E6F9022000F0B7F9012000F00CFA97
:1001C000002000F027FA042000F01AFA002000F0C6
:1001D0000DFA0024042000F00BF923462822042104
:1001E000CDE90044022000F01FFA204600F0C8F9D3
:1001F000204600F099F9032000F0EEF9204600F0C7
:100200009BF9054A054B1360054A06491160064AE9
:10021000136002B010BD00BF0000002000B4C40491
:1002200004000020005A62020800002038B540F6A1
:10023000082000F00DFA4FF4C16000F026FA4FF4E8
:10024000C16000F024FA4FF4186000F001FA4FF496
:10025000B06000F01AFA4FF4B06000F018FA40F6FF
:10026000821000F0F5F940F2825000F00EFA40F2F0
:10027000825000F00CFA4F4802220A2100F0FDF8EB
:100280004C4804220A2100F0F8F84A4808220A21C2
:1002900000F0F3F8474810220A2100F0EEF8082297
:1002A0000A214FF0904000F0E8F842484FF4006215
:1002B0000A2100F0E2F8022319463E48002200F02D
:1002C000A1F83C4804230022022100F09BF83948A1
:1002D00008230022022100F095F83648102300225E
:1002E000022100F08FF833484FF40063012202210D
:1002F00000F088F80823002202214FF0904000F01F
:1003000081F80423022201214FF0904000F07AF896
:10031000284802230322002100F094F825480423F2
:100320000322002100F08EF8224808230322002136
:1003300000F088F81F4810230322002100F082F803
:100340001C484FF400630322002100F07BF80423D3
:10035000032200214FF0904000F074F8082303229C
:1003600000214FF0904000F06DF8134B1C461A68C6
:100370009206FCD4114B124A1A601248124A43F8F2
:10038000042C02230360114B11491960194623689C
:100390009D07FCD50F4A13680F4B1F251D600125D3
:1003A00005600E48086021688907FCD512681F2285
:1003B0001A6038BD00080048081000A0041000A012
:1003C00000011700101000A081030009141000A004
:1003D000AF012007201000A00C1000A0050120078D
:1003E00008B5FFF7E3FEFFF721FF002008BD00007E
:1003F000034A136823F0070318431060704700BFD7
:10040000002002402DE9F0410568C46800264FF045
:10041000030E43FA06F7FF070DD577000EFA07FC27
:1004200001FA07F825EA0C0524EA0C0402FA07F79A
:1004300048EA05053C430136102EEAD10560C46048
:10044000BDE8F081012941680CBF19439943F0B51B
:10045000416081680024032643FA04F5ED0707D5BF
:10046000650006FA05F721EA070102FA05F52943B6
:100470000134102CF0D18160F0BDF0B5076A466AF6
:1004800000234FF00F0C42FA03F4E50707D59D0057
:100490000CFA05F427EA040701FA05F52F430133A6
:1004A000082BF0D14FF00F0C42FA03F4E40708D503
:1004B0009C00203C0CFA04F526EA050601FA04F437
:1004C00026430133102BEFD107624662F0BD0000D6
:1004D00006281FD8DFE800F004090E13181A1C00C4
:1004E0000D4B1868C0F3406070470B4B1868C0F3A1
:1004F00040407047084B1868C0F380207047064B97
:100500001868C0F340007047044BF9E7044BF7E765
:10051000044BF5E7002070470010024090100240A5
:10052000941002409810024008B502461046FFF7AA
:10053000CFFF0028FAD008BD032808D8DFE800F074
:10054000160F08020D4A136813F00C0FFBD1704709
:100550000A4A1368C3F38103012BFAD17047074A93
:100560001368C3F38103022BFAD17047034A13685F
:10057000C3F38103032BFAD1704700BF0810024078
:1005800006280AD8DFE800F0040A0F14191B1D0022
:100590000D4A136843F08073136070470A4A13686A
:1005A00043F48033F8E7084A136843F48073F3E7B1
:1005B000054A136843F00103EEE7044AF9E7044AE9
:1005C000F7E7044AF5E700BF001002409010024030
:1005D0009410024098100240034A136823F003036A
:1005E00018431060704700BF08100240034A1368A8
:1005F00023F4605343EAC0201060704708100240A3
:10060000034A136823F4E06343EA00201060704754
:1006100008100240034A136823F0F00343EA001075
:10062000106070470810024010B5039C0139640641
:1006300044EA01142043029C40EA4450034343EA45
:100640000222024B42F080721A6010BD0C10024070
:10065000430903F1804303F5043300F01F001968D8
:10066000012202FA00F0084318607047430903F1C1
:10067000804303F5043300F01F001A68012101FADA
:1006800000F022EA000018607047FFF7E1BFFFF7B3
:10069000EDBFFEE77047000038B51A4A1A4B1B49F8
:1006A0008B421BD31A4A002193421CD3194A1A4C7D
:1006B00013681A4D43F400731360536F43F47003CF
:1006C0005367AC4212D3164C164DAC4212D3FFF70F
:1006D00087FE154C154DAC4210D338BD52F8040BB3
:1006E00043F8040BDCE743F8041BDDE754F8043B54
:1006F0009847E6E754F8043B9847E6E754F8043B8C
:100700009847E8E730070008000000200C000020B0
:100710000C00002014ED00E030070008300700084E
:1007200030070008300700083007000830070008CD
:0C07300000093D0000093D0000093D00EB
:040000050800069950
:00000001FF
