:020000040800F2
:1000000000000420390E0008370E0008350E0008E5
:10001000350E0008350E0008350E000800000000FF
:10002000000000000000000000000000370E000883
:10003000370E000800000000370E0008370E0008D9
:10004000350E0008350E0008350E0008350E000884
:10005000350E0008350E0008350E0008350E000874
:10006000350E0008350E0008350E0008350E000864
:10007000350E0008350E0008350E0008350E000854
:10008000350E0008350E0008350E0008350E000844
:10009000350E0008350E0008350E0008350E000834
:1000A000350E0008350E0008350E0008350E000824
:1000B000350E0008350E0008350E0008350E000814
:1000C000350E0008350E0008350E0008350E000804
:1000D000350E0008350E0008350E0008350E0008F4
:1000E000350E0008350E0008350E0008350E0008E4
:1000F000350E0008350E0008350E0008350E0008D4
:10010000350E0008350E0008350E0008350E0008C3
:10011000350E0008350E0008350E0008350E0008B3
:10012000350E0008350E0008350E0008350E0008A3
:10013000350E0008350E0008350E0008350E000893
:10014000350E0008350E0008350E0008350E000883
:10015000350E0008350E0008350E0008350E000873
:10016000350E0008350E0008350E0008350E000863
:10017000350E0008350E0008350E0008350E000853
:10018000350E0008350E0008350E0008350E000843
:10019000350E0008350E0008350E0008350E000833
:1001A000350E0008350E0008350E00084FF080535C
:1001B00044F2A7101A685043B0F1FF3F28BF013046
:1001C0001860704713B5022000F032FC022000F0E6
:1001D00003FC012000F058FC002000F073FC042018
:1001E00000F066FC002000F059FC0024042000F020
:1001F00047FB234628220421CDE90044022000F0D9
:100200006BFC204600F014FC204600F0E5FB0320C8
:1002100000F03AFC204600F0E7FB054A054B13606E
:10022000054A06491160064A136002B010BD00BFBE
:100230000000002000B4C40404000020005A620240
:100240000800002008B54FF4186000F07BFC40F671
:100250000E4000F077FC4FF4C063002202214FF003
:10026000904000F033FB4FF4007207214FF09040B4
:1002700000F04CFB4FF4806207214FF0904000F0FB
:1002800045FB0F484FF4E13100F070FD0C480821A8
:1002900000F096FD0A48002100F09BFD08480C2163
:1002A00000F0A3FD0648002100F099FD044800215C
:1002B00000F0A1FDBDE80840014800F0A2BD00BF6C
:1002C0000038014008B540F61C3000F03BFC00F05F
:1002D00047FB052000F0ACFB052000F07DFB05206E
:1002E00000F016FC00F00CFC00F046FC00F058FC9E
:1002F00000F064FC00F07AFC7F21F92000F030FC73
:1003000000F07AFC002000F08FFC002000F0A2FC3E
:10031000002000F0B9FC00F07FFC00220123114610
:10032000104600F015FD00F06FFC00F04FFC00F0EF
:100330003FFCBDE8084000F01BBB0000F8B51C4CBA
:100340004FF00051FFF732FF41F8040BA142F9D101
:1003500000F0A0FA174D002414F4FF6F05D1E00A55
:10036000803000F067FA00F055FA04F100531F687E
:100370005E6800F01FFA2B6843F001032B6004F164
:10038000006303F5802203F1041317601E6000F080
:1003900011FA2B6823F001032B60083400F03AFABD
:1003A000B4F5003FD8D1BDE8F84000F07FBA00BFF7
:1003B0000000022014200240F8B50446FFF7F6FEC4
:1003C000234B984241D824F00307E4433E68FFF7EB
:1003D000EDFE6FF0604504F00304B0FBF5F000F0B3
:1003E000070505EBC4040123A34083EA06044BBBC5
:1003F0001848EE2100F00AFD1648294600F006FDD7
:100400001448310E00F002FD1248310C00F0FEFCE1
:100410001048C6F30F2100F0F9FC0E48B1B200F00D
:10042000F5FC0C48210E00F0F1FC0A48210C00F00C
:10043000EDFC0848C4F30F2100F0E8FC0548A1B228
:1004400000F0E4FC3C600120F8BD0020FCE700BFA8
:10045000275C8F02003801402DE9F74300F01AFABB
:100460000026214FDFF88490DFF884804FF000559C
:1004700034462846FFF7A0FF58B302AB03EB8603D0
:10048000013443F8085C6EB340F2FC7313EA840352
:100490004FEA840605D1F00AC03000F0CBF900F035
:1004A000B9F900F087F93B6843F001033B6006F1BE
:1004B000006303F5C023009A1A60019B46F80930D7
:1004C00000F078F93B6823F001033B6000F0A2F9EB
:1004D000002601354545CCD100F0E8F9204603B0AF
:1004E000BDE8F0830126F4E714200240040006086A
:1004F00000000220F0B50022104622F0030322F093
:10050000070103F1005301F1006101F5802501F1BC
:1005100004111C682F680E68D34303F00301C9005F
:1005200024FA01F103F007030024A4194FEAC303DE
:1005300047F10005C3F12007A3F1200605FA07F7EC
:1005400024FA03F33B4325FA06F63343C9B2DBB280
:10055000994202F1010218BF0130B2F5003FCCD13F
:10056000F0BD00007FB5002401A90A23002806DCA5
:100570000A4E013C01AD631C09D104B070BD90FB73
:10058000F3F203FB1200605410460134EEE7615DA4
:100590003046303100F03AFC013CECE700380140D5
:1005A000F8B56D4C07460E4620462321154600F04F
:1005B0002DFC2046652100F029FC2046722100F028
:1005C00025FC2046722100F021FC20466F2100F01E
:1005D0001DFC2046722100F019FC2046732100F01A
:1005E00015FC2046202100F011FC2046692100F076
:1005F0000DFC20466E2100F009FC2046642100F02D
:1006000005FC2046752100F001FC2046632100F026
:10061000FDFB2046652100F0F9FB2046642100F037
:10062000F5FB20463A2100F0F1FB2021204600F0A6
:10063000EDFB3846FFF796FF20460D2100F0E6FB64
:1006400020460A2100F0E2FB2046232100F0DEFBD9
:100650002046652100F0DAFB2046722100F0D6FB2F
:100660002046722100F0D2FB20466F2100F0CEFB25
:100670002046722100F0CAFB2046732100F0C6FB21
:100680002046202100F0C2FB2046662100F0BEFB80
:1006900020466F2100F0BAFB2046752100F0B6FB22
:1006A00020466E2100F0B2FB2046642100F0AEFB34
:1006B00020463A2100F0AAFB2021204600F0A6FBAC
:1006C0003046FFF74FFF20460D2100F09FFB2046EC
:1006D0000A2100F09BFB2046742100F097FB204686
:1006E000692100F093FB20466D2100F08FFB20462E
:1006F000652100F08BFB2046202100F087FB20467F
:10070000732100F083FB2046702100F07FFB204620
:10071000652100F07BFB20466E2100F077FB204630
:10072000742100F073FB20463A2100F06FFB20217A
:10073000204600F06BFB2846FFF714FF204673218C
:1007400000F064FB20460D2100F060FB20460A21EA
:10075000BDE8F84000F05ABB0038014070B5FFF723
:1007600031FDFFF76FFDFFF7ADFD4FF0805340F611
:10077000BA221A60FFF7E2FDFFF76EFE0C4E054647
:100780003468FFF7B7FE32680146C2F30316C4F3BC
:1007900003100A2304F00F0402F00F0213FB0622D9
:1007A00013FB0043D21A2846FFF7FAFE002070BD63
:1007B00000280040024A1368DB03FCD4704700BFE6
:1007C00010200240024A136843F080031360704710
:1007D00010200240024A136843F040031360704740
:1007E00010200240024A136843F020031360704750
:1007F00010200240024A136843F010031360704750
:1008000010200240024A136843F008031360704747
:100810001020024008B5FFF7D5FFFFF7DBFFFFF719
:10082000E1FFFFF7E7FFFFF7EDFFBDE8084000F04D
:1008300045B8000008B5FFF7BDFF10490B6823F469
:100840007F6323F008030B60FF2882BF0B6843F42B
:1008500000630B600B6843EAC00008600B6843F05C
:1008600002030B600B6843F480330B60FFF7A2FFB9
:100870000B6823F002030B6008BD00BF1420024088
:10088000034A136823F0070318431060704700BF42
:1008900000200240034B044A1A6002F188321A60B9
:1008A000704700BF0820024023016745024A1368D1
:1008B00043F000431360704714200240024A13685B
:1008C00043F0010313607047102002402DE9F0410E
:1008D0000568C46800264FF0030E43FA06F7FF07C9
:1008E0000DD577000EFA07FC01FA07F825EA0C058A
:1008F00024EA0C0402FA07F748EA05053C430136EE
:10090000102EEAD10560C460BDE8F081F0B5076A39
:10091000466A00234FF00F0C42FA03F4E50707D5AF
:100920009D000CFA05F427EA040701FA05F52F43A8
:100930000133082BF0D14FF00F0C42FA03F4E40717
:1009400008D59C00203C0CFA04F526EA050601FABD
:1009500004F426430133102BEFD107624662F0BD49
:10096000024A136843F480731360704700700040BC
:10097000024A136823F480731360704700700040CC
:1009800006281FD8DFE800F004090E13181A1C000F
:100990000D4B1868C0F3406070470B4B1868C0F3EC
:1009A00040407047084B1868C0F380207047064BE2
:1009B0001868C0F340007047044BF9E7044BF7E7B1
:1009C000044BF5E7002070470010024090100240F1
:1009D000941002409810024008B502461046FFF7F6
:1009E000CFFF0028FAD008BD032808D8DFE800F0C0
:1009F000160F08020D4A136813F00C0FFBD1704755
:100A00000A4A1368C3F38103012BFAD17047074ADE
:100A10001368C3F38103022BFAD17047034A1368AA
:100A2000C3F38103032BFAD1704700BF08100240C3
:100A300006280AD8DFE800F0040A0F14191B1D006D
:100A40000D4A136843F08073136070470A4A1368B5
:100A500043F48033F8E7084A136843F48073F3E7FC
:100A6000054A136843F00103EEE7044AF9E7044A34
:100A7000F7E7044AF5E700BF00100240901002407B
:100A80009410024098100240034A136823F00303B5
:100A900018431060704700BF08100240034A1368F3
:100AA00023F4605343EAC0201060704708100240EE
:100AB000034A136823F4E06343EA002010607047A0
:100AC00008100240034A136823F0F00343EA0010C1
:100AD000106070470810024010B5039C013964068D
:100AE00044EA01142043029C40EA4450034343EA91
:100AF0000222024B42F080721A6010BD0C100240BC
:100B0000024A136843F40043136070479010024098
:100B10000B4B1A68042822F440721A6008D005288A
:100B20000AD0012803D11A6842F440721A60704753
:100B30001A6842F48072F9E71A6842F40072F5E725
:100B400090100240430903F1804303F5043300F0A1
:100B50001F001968012202FA00F00843186070476C
:100B6000044BC0F30E0018601A6842EA0141196094
:100B7000704700BF10280040074BCA221A6053225A
:100B80001A60064A116821F0200111601168890677
:100B9000FCD5FF221A607047242800400C28004032
:100BA000024BCA221A6053221A6070472428004060
:100BB000014BFF221A60704724280040024A136844
:100BC00043F08003136070470C280040024A13680A
:100BD00023F08003136070470C280040024B186814
:100BE000C0F38010704700BF0C28004008B5FFF725
:100BF000F5FF0028FBD008BD024A136843F020032C
:100C00001360704708280040024A136823F020034D
:100C10001360704708280040024A136823F040031D
:100C200013607047082800400A23B0FBF3F203FB6F
:100C3000120040EA0213064A116821F47F01116094
:100C400011681B0403F47F030B431360704700BF5C
:100C5000042800400A23B0FBF3F203FB120040EA31
:100C60000210084A136823F4F853136003020002C9
:100C7000116803F4805300F4706018430843106057
:100C8000704700BF042800400A23B0FBF3F203FBC7
:100C9000120040EA0213054A116821F03F01116079
:100CA000116803F03F030B431360704704280040B2
:100CB0000F4B1A68C9B122F480021A600A23B0FBF4
:100CC000F3F203FB120040EA0210094A136823F40E
:100CD0007C13136003040004116803F4401300F450
:100CE0007020184308431060704742F48002E4E724
:100CF000002800400A23B0FBF3F203FB120040EA95
:100D00000210084A136823F4FE4313600302000232
:100D1000116803F4E04300F4706018430843106066
:100D2000704700BF002800400A23B0FBF3F203FB2A
:100D3000120040EA0213054A116821F07F01116098
:100D4000116803F07F030B431360704700280040D5
:100D500038B50D4619461446FFF7AAFF2846FFF797
:100D6000C9FF2046BDE83840FFF7DEBF0F4A90427A
:100D700010B54FEA510306D10D4A12681A44B2FB6E
:100D8000F1F2C26010E00B4C0B4AA0421268F5D1A0
:100D9000B2FBF1F001FB102203EB0222B2FBF1F3F4
:100DA000064A03EB0023136010BD00BF003801406A
:100DB0000800002000800040040000200C8000405B
:100DC000036808290CBF23F4805343F48053036065
:100DD0007047436823F440531943416070470368E8
:100DE00023F4C063194301607047036823F00C03C8
:100DF000194301607047836823F44073194381608D
:100E00007047036843F001030360704713B504465D
:100E1000019100F00BF80199204602B0BDE81040A6
:100E200000F000B8C1F3080181627047C3691B0676
:100E3000FCD57047FEE7704738B51A4A1A4B1B4974
:100E40008B421BD31A4A002193421CD3194A1A4CD5
:100E500013681A4D43F400731360536F43F4700327
:100E60005367AC4212D3164C164DAC4212D3FFF767
:100E700075FC154C154DAC4210D338BD52F8040B1F
:100E800043F8040BDCE743F8041BDDE754F8043BAC
:100E90009847E6E754F8043B9847E6E754F8043BE4
:100EA0009847E8E7D00E0008000000200C00002062
:100EB0000C00002014ED00E0D00E0008D00E000859
:100EC000D00E0008D00E0008D00E0008D00E00088A
:0C0ED00000093D0000093D0000093D0044
:0400000508000E39A8
:00000001FF
